:020000040800F2
:1000000000000120CD160008DD150008E5150008E8
:10001000ED150008F5150008FD15000800000000AA
:1000200000000000000000000000000005160008AD
:100030001316000800000000211600082F16000803
:100040001D1700081D1700081D1700081D170008C0
:100050001D1700081D1700081D1700081D170008B0
:100060001D1700081D1700081D1700081D170008A0
:100070001D1700081D1700081D1700081D17000890
:100080001D1700081D1700081D17000800000000BC
:100090000000000000000000000000001D17000824
:1000A0001D1700081D1700081D1700081D17000860
:1000B0001D1700081D1700081D1700081D17000850
:1000C0001D1700081D1700081D1700081D17000840
:1000D0001D1700081D1700081D170008000000006C
:1000E0001D1700081D1700081D170008000000005C
:1000F0000000000000000000000000001D170008C4
:10010000000000001D1700081D1700081D1700083B
:1001100000000000000000000000000000000000DF
:100120001D1700081D1700081D1700081D170008DF
:100130001D17000800000000000000000000000083
:100140000000000000000000000000001D17000873
:100150001D1700081D1700081D1700081D170008AF
:100160001D1700081D170008000000000000000017
:10017000000000000000000000000000000000007F
:10018000000000001D170008000000000000000033
:040190001D1700082F
:1001A00010B5054C237833B9044B13B10448AFF3B1
:1001B00000800123237010BD80000020000000009B
:1001C000B438000808B5034B1BB103490348AFF32B
:1001D000008008BD0000000084000020B438000842
:1001E000034613F8012B002AFBD1181A0138704777
:1001F00001F0FF01102A2BDB10F0070F08D010F8D8
:10020000013B013A8B422DD010F0070F42B3F6D1DB
:10021000F0B441EA012141EA014122F007047FF0F4
:1002200000070023F0E80256083C85EA010586EA4B
:10023000010685FA47F5A3FA87F586FA47F6A5FA87
:1002400087F68EB9EED1F0BC01F0FF0102F0070293
:1002500032B110F8013B013A83EA010313B1F8D13E
:100260000020704701387047002D06BF354603381F
:10027000073815F0010F07D1013015F4807F02BF58
:10028000013015F4C03F0130F0BC0138704700BFA9
:1002900053B94AB9002908BF00281CBF4FF0FF31ED
:1002A0004FF0FF3000F06AB9ADF1080C6DE904CEF3
:1002B00000F006F8DDF804E0DDE9022304B0704741
:1002C0002DE9F047089D0C46002B4ED194468C45F5
:1002D0008646B2FA82F262D94AB1C2F12003914055
:1002E00020FA03F30CFA02FC194300FA02FE4FEA6B
:1002F0001C471FFA8CF6B1FBF7F44FEA1E4307FBCD
:10030000141143EA014304FB06F199420AD91CEB9C
:10031000030304F1FF3080F01281994240F20F8113
:10032000023C6344591A1FFA8EF3B1FBF7F007FB46
:10033000101143EA014300FB06F69E420AD91CEB6A
:10034000030300F1FF3180F0FC809E4240F2F9800F
:10035000634402389B1B40EA044000211DB1D34096
:100360000022C5E90032BDE8F0878B4205D90DB106
:10037000C5E9000100210846F5E7B3FA83F1002939
:1003800046D1A34202D39042C0F0F080861A64EBBB
:1003900003030120002DE6D0C5E90063E3E7002A4E
:1003A00040F09080A1EB0C044FEA1C481FFA8CF738
:1003B0000121B4FBF8F64FEA1E4308FB164443EA5A
:1003C000044307FB06F0984208D91CEB030306F12F
:1003D000FF3402D2984200F2CD8026461C1A1FFA42
:1003E0008EF3B4FBF8F008FB104443EA044300FB2F
:1003F00007F79F4208D91CEB030300F1FF3402D238
:100400009F4200F2B0802046DB1B40EA0640A5E791
:10041000C1F120068B4022FA06F71F4320FA06FCA2
:1004200004FA01F343EA0C03F44000FA01F8380C33
:100430004FEA1349B4FBF0FE1FFA87FC00FB1E4491
:1004400049EA04440EFB0CF9A14502FA01F20AD96B
:100450003C190EF1FF3A80F08480A14540F2818082
:10046000AEF1020E3C44A4EB09041FFA83F9B4FB7D
:10047000F0F300FB134449EA044403FB0CFCA445DD
:1004800007D93C1903F1FF3067D2A44565D9023B77
:100490003C4443EA0E40A0FB0293A4EB0C049C42B4
:1004A000CE469C4651D34ED055B1B8EB0E0364EB0B
:1004B0000C0404FA06F6CB401E43CC40C5E90064A8
:1004C000002150E7C2F1200320FA03F10CFA02FCEC
:1004D00024FA03F394400C434FEA1C4800FA02FE4E
:1004E0001FFA8CF7B3FBF8F008FB1031230C43EA3A
:1004F000014300FB07F1994208D91CEB030300F10B
:10050000FF362CD299422AD9023863445B1AA4B22E
:10051000B3FBF8F108FB113344EA034401FB07F392
:10052000A34208D91CEB040401F1FF3613D2A34205
:1005300011D902396444E41A41EA004139E704461A
:10054000F0E6084606E7C845AED2B9EB020E63EB0B
:10055000070C0138A8E73146EDE7034699E7304636
:10056000D4E7D6467FE7634402384DE70646234684
:1005700008460FE7023E634430E700BF704700BF04
:1005800080B582B000AF0346FB71FB79002B01D030
:10059000FF2300E000234FF480621946034802F075
:1005A00009FD00BF0837BD4680BD00BFD400002054
:1005B00090B59BB004AF786039604FF48062002141
:1005C000414802F0F7FC7B681B7819467B685B7832
:1005D0001A467B689B7807F12800019300920B462E
:1005E0003A4A0C2102F0B2FC3B68DB7803F5FA636F
:1005F000A7F856303B681B78002B0AD03B681B7865
:10060000072B06D83B681B781A46314B53F822302B
:1006100000E0304B3B653B689B781C463B685B7851
:100620001946B7F8563007F108003A6D0292019367
:1006300000912346284A202102F088FC022387F8F3
:100640004F3097F84F2007F128031146184600F065
:1006500003FCB864BB6CC3F18003DA0F13445B1076
:100660007B6408233B6407F108031846FFF7B8FDD5
:1006700003461A4613465B0013445B00FB63FB6BA7
:10068000C3F18003DA0F13445B10BB6328237B6341
:1006900007F1280297F84F30019301230093134686
:1006A0003A6C796C084800F07DFC07F108030122E0
:1006B0000192012200927A6BB96B034800F042FE6E
:1006C00000BF5C37BD4690BDD4000020243900082F
:1006D000000000204C3900083839000880B500AF10
:1006E00001F01EF800F032F800F000F900F090F888
:1006F00000F064FA102000F005FB0020FFF740FF37
:1007000000220D490D4802F052F900220C490B4815
:1007100002F02FFA084B9A780A4B1B789A42EFD0D6
:1007200007490548FFF744FF074800F0BDFA024BB0
:100730009A78044B1A70E3E79C000020B400002074
:10074000B000002020000020D400002080B594B02C
:1007500000AF07F1200330220021184602F02AFCE6
:1007600007F10C0300221A605A609A60DA601A617D
:100770000023BB60244B1B6C234A43F0805313645B
:10078000214B1B6C03F08053BB60BB6800237B6074
:100790001E4B1B6823F440431C4A43F40043136080
:1007A0001A4B1B6803F440437B607B6806233B6263
:1007B0000123BB620123FB6210233B630023BB6365
:1007C00007F12003184601F0C5FA0346002B01D0BB
:1007D00000F016F90F23FB6000233B6100237B61CF
:1007E0000023BB610023FB6107F10C0300211846C5
:1007F00001F028FD0346002B01D000F001F900BFF5
:100800005037BD4680BD00BF003802400070004038
:1008100080B586B000AF3B1D00221A605A609A6016
:10082000DA601A6100233B602E4B2F4A1A602D4B71
:1008300000225A602B4B7F229A602A4BFF22DA60FB
:10084000284B00221A61274B00225A61254B0022B7
:100850009A61244801F090FF0346002B01D000F07C
:10086000CFF821233B7116237B710023BB7100233A
:100870003B6100237B613B1D01221946194801F0B1
:10088000FCFF0346002B01D000F0BAF801233B70B7
:1008900011237B702423BB702523FB703B46012270
:1008A0001946104802F0E1F80346002B01D000F091
:1008B000A7F8042200210B4802F068FA0346002B37
:1008C00001D000F09DF84FF40021064802F0FBFA39
:1008D0000346002B01D000F093F800BF1837BD4647
:1008E00080BD00BFB40000200028004080B58AB061
:1008F00000AF07F1140300221A605A609A60DA60B0
:100900001A6100233B613B4B1B6B3A4A43F00403E3
:100910001363384B1B6B03F004033B613B690023FB
:10092000FB60344B1B6B334A43F080031363314B42
:100930001B6B03F08003FB60FB680023BB602D4B47
:100940001B6B2C4A43F0020313632A4B1B6B03F00F
:100950000203BB60BB6800237B60264B1B6B254AF0
:1009600043F001031363234B1B6B03F001037B6014
:100970007B680022FF21204801F0D2F900224FF4C9
:1009800080711E4801F0CCF901224FF4F0511B4850
:1009900001F0C6F9F7237B610123BB610023FB61F2
:1009A00002233B6207F114031946134801F034F89F
:1009B0004FF4F8537B610123BB610023FB610223E9
:1009C0003B6207F1140319460C4801F025F808238F
:1009D0007B610123BB610023FB6100233B6207F1C4
:1009E00014031946044801F017F800BF2837BD4624
:1009F00080BD00BF003802400004024000000240F9
:100A000080B400AF72B600BF00BFFDE780B485B010
:100A100000AF0346FB710A4B5B69FB60FB6823F088
:100A2000FF03FB60FB79FA681343FB60044AFB6831
:100A3000536100BF1437BD465DF8047B704700BFAB
:100A40000004024080B500AF00224FF4006102486C
:100A500001F066F900BF80BD0000024080B500AF24
:100A600001224FF40061024801F05AF900BF80BD35
:100A70000000024080B500AF00224FF480710248B0
:100A800001F04EF900BF80BD0000024080B500AF0C
:100A900001224FF48071024801F042F900BF80BD8D
:100AA0000000024080B500AF00224FF400710648FC
:100AB00001F036F900BF00BF01224FF40071024877
:100AC00001F02EF900BF80BD0000024080B500AFEC
:100AD00000224FF48051084801F022F9022000F072
:100AE00091FE01224FF48051034801F019F90520CD
:100AF00000F088FE00BF80BD0000024080B582B0DB
:100B000000AF0346FB71FB791846FFF77FFFFFF745
:100B1000C9FF00BF0837BD4680BD80B582B000AFB9
:100B20000346FB71FFF7A6FFFFF78CFFFB79184622
:100B3000FFF7E4FFFFF792FF00BF0837BD4680BD17
:100B400080B582B000AF0346FB71FFF79FFFFFF750
:100B500079FFFB791846FFF7D1FFFFF77FFF00BF52
:100B60000837BD4680BD80B582B000AF03460A4657
:100B7000FB711346BB7197F9073003F007035BB2B3
:100B800063F04F035BB2DBB21846FFF7C6FFBB79D9
:100B90001B09DBB25BB243F010035BB2DBB2184659
:100BA000FFF7BBFFBB7903F00F03DBB21846FFF77B
:100BB000B4FF00BF0837BD4680BD000080B582B0DD
:100BC00000AF01224FF48061364801F0A9F80122FC
:100BD0004FF40071334801F0A3F801224FF4006193
:100BE000304801F09DF801224FF480512D4801F06A
:100BF00097F800224FF480712A4801F091F8FFF72E
:100C000065FFAE20FFF789FFE220FFF786FF022095
:100C100000F0F8FD4020FFF780FFA020FFF77DFFE8
:100C2000C820FFF77AFFA220FFF777FF2F20FFF7FA
:100C300074FFF820FFF771FF0020FFF76EFF2720F9
:100C4000FFF76BFF8120FFF768FF1820FFF765FFB4
:100C5000A620FFF762FFA420FFF75FFFAF20FFF79A
:100C60005CFF0023FB7114E0FB7900211846FFF7BD
:100C70007AFF0023BB7105E00020FFF761FFBB791D
:100C80000133BB7197F90630002BF5DAFB7901339C
:100C9000FB71FB79072BE7D900BF00BF0837BD46C2
:100CA00080BD00BF0000024080B584B000AF786016
:100CB0000023FB731EE0FB7B00211846FFF753FF68
:100CC000FB7BDB011A467B681344BB600023BB73CC
:100CD00009E0BB7BBA6813441B781846FFF730FF66
:100CE000BB7B0133BB7397F90E30002BF1DAFB7B32
:100CF0000133FB73FB7B072BDDD900BF00BF10372F
:100D0000BD4680BD80B582B000AF0346FB71FB7964
:100D10003F2B01D93F23FB718120FFF7FEFEFB79BA
:100D20001846FFF7FAFE00BF0837BD4680BD80B405
:100D300087B000AFF860B9607A60FB70FB68002B89
:100D400038D0BB68002B37DB7B68002B34DBBB68FB
:100D50007F2B31DC7B683F2B2EDC7B68DB109BB26A
:100D6000DB019AB2BB689BB21344FB827B6803F041
:100D70000703012202FA03F37B75FB78002B0BD0EB
:100D8000FB8AFA6813441978FB8AFA6813447A7D5F
:100D90000A43D2B21A7010E0FB8AFA681344197839
:100DA0007B7DDB43DAB2FB8AF86803440A40D2B2A7
:100DB0001A7002E000BF00E000BF1C37BD465DF8BE
:100DC000047B704780B588B000AFF860B9607A6086
:100DD000FB70FB781F2B02D9FB787E2B01D93F23B8
:100DE000FB70FB78A3F1200213469B001344194AC1
:100DF00013447B610023FB6123E0FB697A691344A0
:100E00001B78FB740023BB6115E0FA7CBB6922FAF6
:100E100003F303F00103002B0AD0BA68FB69D11871
:100E20007A68BB691A4497F82830F868FFF77FFFA3
:100E3000BB690133BB61BB69062BE6DDFB6901338E
:100E4000FB61FB69042BD8DD00BF00BF2037BD4626
:100E500080BD00BF5039000880B485B000AF786015
:100E60000B46FB707B68002B01D100231CE00023A4
:100E7000FB607B68BB6009E0BB681B780A2B0AD06B
:100E8000FB680133FB60BB680133BB60BB681B7848
:100E9000002BF1D100E000BFFB78FA6803FB02F2FF
:100EA00013465B0013445B0018461437BD465DF8DB
:100EB000047B704780B58CB002AFF860B9607A608F
:100EC000FB7097F83430012B0AD8FA7897F8303055
:100ED000009313467A68B968F868FFF773FF5CE01F
:100EE000FB781F2B02D9FB787E2B01D93F23FB70A7
:100EF000FB78A3F1200213469B001344284A1344B5
:100F00007B6100237B6245E07B6A7A6913441B782E
:100F1000FB7400233B6237E0FA7C3B6A22FA03F35E
:100F200003F00103002B2CD00023FB6124E00023FD
:100F3000BB6119E097F834307A6A03FB02F2BB68B0
:100F40001A44BB69D11897F834303A6A03FB02F2AD
:100F50007B681A44FB691A4497F83030F868FFF749
:100F6000E6FEBB690133BB6197F83430BA699A4237
:100F7000E0DBFB690133FB6197F83430FA699A4290
:100F8000D5DB3B6A01333B623B6A062BC4DD7B6ADF
:100F900001337B627B6A042BB6DD2837BD4680BDFA
:100FA0005039000880B588B002AFF860B9607A6047
:100FB0003B603B68002B32D0BB687B612AE03B681A
:100FC0001B780A2B0BD1BB687B6197F82430DB00C0
:100FD0007A6813447B603B6801333B601AE03B68EE
:100FE0001A7897F82430019397F82030009313462D
:100FF0007A687969F868FFF75DFF97F8242013464F
:101000005B0013445B001A467B6913447B613B68B9
:1010100001333B603B681B78002BD0D100E000BF60
:101020001837BD4680BD80B58CB000AFF860B960A0
:101030007A603B60FB68002B7ED03B68002B7BD046
:1010400097F83C30012B2AD80023FB6223E0FB6A8F
:101050003A6813441B78BB750023BB6215E0BA7D68
:10106000BB6A22FA03F303F00103002B0AD0BA682B
:10107000FB6AD1187A68BB6A1A4497F83830F86866
:10108000FFF755FEBB6A0133BB62BB6A072BE6DD87
:10109000FB6A0133FB62FB6A052BD8DD4DE00023C0
:1010A0007B6245E07B6A3A6813441B78FB7500233A
:1010B0003B6237E0FA7D3B6A22FA03F303F0010357
:1010C000002B2CD00023FB6124E00023BB6119E03E
:1010D00097F83C307A6A03FB02F2BB681A44BB699A
:1010E000D11897F83C303A6A03FB02F27B681A4445
:1010F000FB691A4497F83830F868FFF718FEBB69A7
:101100000133BB6197F83C30BA699A42E0DBFB6976
:101110000133FB6197F83C30FA699A42D5DB3B6AB0
:1011200001333B623B6A072BC4DD7B6A01337B6280
:101130007B6A052BB6DD00E000BF3037BD4680BDC1
:1011400080B485B000AF786039607B68002B03D035
:101150007B681B78002B04D13B6800221A607B68F7
:101160003CE07B68FB60FB681B785BB2002B07DB15
:10117000FB681B781A463B681A60FB6801332DE058
:10118000FB681B78D02B03D0FB681B78D12B20D1B8
:10119000FB681B78FB72FB6801331B78BB7297F905
:1011A0000A30002B15DABB7ABF2B12D8FB7AD02B72
:1011B00006D1BB7A03F560731A463B681A6005E0F6
:1011C000BB7A03F570731A463B681A60FB680233FA
:1011D00004E03B683F221A60FB680133184614376D
:1011E000BD465DF8047B704780B483B000AF786083
:1011F0007B68A3F58263352B00F29C8001A252F834
:1012000023F000BFDD12000809130008E1120008F6
:101210003513000835130008E512000835130008DF
:10122000351300083513000835130008E9120008CB
:1012300035130008ED120008F1120008F51200083D
:1012400035130008F9120008FD1200080113000808
:10125000351300083513000805130008351300087E
:10126000351300083513000835130008351300083E
:10127000351300083513000835130008351300082E
:10128000351300080D130008351300083513000846
:101290003513000835130008111300083513000832
:1012A000351300083513000835130008151300081E
:1012B00035130008191300081D1300082113000836
:1012C0003513000825130008291300082D13000802
:1012D00035130008351300083113000841232AE0B4
:1012E000422328E0452326E04B2324E04D2322E03F
:1012F000482320E04F231EE050231CE043231AE044
:10130000542318E0582316E0422314E0612312E02E
:10131000652310E06B230EE06D230CE068230AE0E8
:101320006F2308E0702306E0632304E0742302E0E7
:10133000782300E0002318460C37BD465DF8047B97
:10134000704700BF80B58CB002AFF860B9607A60BA
:101350003B60FB68002B00F0E3803B68002B00F053
:10136000DF80BB687B623B683B62D3E007F114031C
:101370001946386AFFF7E4FEF8617B69002B00F03C
:10138000D1807B697F2B37D87B69DBB20A2B0AD1EE
:10139000BB687B6297F83430DB007A6813447B606B
:1013A000FB693B62B6E097F83430012B0BD87B69C0
:1013B000DAB297F83030009313467A68796AF868A1
:1013C000FFF700FD0DE07B69DAB297F83430019346
:1013D00097F83030009313467A68796AF868FFF717
:1013E00069FD97F8342013465B0013445B001A46EE
:1013F0007B6A13447B628BE07B691846FFF7F4FE3F
:101400000346FB76FB7E002B26D097F83430012B69
:101410000AD8FA7E97F83030009313467A68796AD2
:10142000F868FFF7CFFC0CE0FA7E97F834300193B0
:1014300097F83030009313467A68796AF868FFF7B6
:1014400039FD97F8342013465B0013445B001A46BD
:101450007B6A13447B625BE07B6940F21F429342EC
:1014600016D197F83430019397F8303000932F4B12
:101470007A68796AF868FFF7D6FD97F83420134642
:101480005B0013445B001A467B6A13447B623FE0B7
:101490007B6940F22742934216D197F8343001938A
:1014A00097F830300093224B7A68796AF868FFF732
:1014B000BAFD97F8342013465B0013445B001A46CC
:1014C0007B6A13447B6223E097F83430012B09D800
:1014D00097F8303000933F237A68796AF868FFF70D
:1014E00071FC0BE097F83430019397F8303000939B
:1014F0003F237A68796AF868FFF7DCFC97F83420B4
:1015000013465B0013445B001A467B6A13447B62FC
:10151000FB693B623B6A1B78002B7FF427AF02E03C
:1015200000BF00E000BF2837BD4680BD2C3B00084F
:10153000343B000880B483B000AF00237B60104BC5
:101540005B6C0F4A43F4804353640D4B5B6C03F4B4
:1015500080437B607B6800233B60094B1B6C084A1F
:1015600043F080531364064B1B6C03F080533B60C5
:101570003B6800BF0C37BD465DF8047B704700BF79
:101580000038024080B588B000AF786007F10C03E6
:1015900000221A605A609A60DA601A617B681B68E0
:1015A0000C4A934211D10223FB604FF48073BB615C
:1015B00007F10C03184600F0F1FF0346002B01D0A1
:1015C000FFF71EFA044B01221A6000BF2037BD4608
:1015D00080BD00BF002800403C0E474280B400AFF1
:1015E00000BFFDE780B400AF00BFFDE780B400AFEF
:1015F00000BFFDE780B400AF00BFFDE780B400AFDF
:1016000000BFFDE780B400AF00BFBD465DF8047BBE
:10161000704780B400AF00BFBD465DF8047B7047E3
:1016200080B400AF00BFBD465DF8047B704780B555
:1016300000AF00F0C7F800BF80BD000080B586B0E5
:1016400000AF7860144A154BD31A7B617B693B610C
:10165000134B1B68002B02D1114B124A1A60104B1E
:101660001A687B6813443A699A4207D201F0AAFCCF
:1016700003460C221A604FF0FF3309E0084B1B6849
:10168000FB60074B1A687B681344054A1360FB68CC
:1016900018461837BD4680BD000001200004000038
:1016A000D40400202806002080B400AF064BD3F8F5
:1016B0008830054A43F47003C2F8883000BFBD4645
:1016C0005DF8047B704700BF00ED00E0DFF834D028
:1016D000FFF7EAFF0C480D490D4A002302E0D458F9
:1016E000C4500433C4188C42F9D30A4A0A4C00236C
:1016F00001E013600432A242FBD301F069FCFEF763
:10170000EDFF704700000120000000208000002055
:10171000903B00088000002024060020FEE7000027
:1017200080B500AF0E4B1B680D4A43F40073136085
:101730000B4B1B680A4A43F480631360084B1B6819
:10174000074A43F480731360032000F031F90F203F
:1017500000F008F8FFF7EEFE0023184680BD00BF3A
:10176000003C024080B582B000AF7860124B1A682E
:10177000124B1B7819464FF47A73B3FBF1F3B2FBAB
:10178000F3F3184600F03BF90346002B01D0012388
:101790000EE07B680F2B0AD8002279684FF0FF30EB
:1017A00000F011F9064A7B681360002300E0012372
:1017B00018460837BD4680BD240000202C000020BC
:1017C0002800002080B400AF064B1B781A46064B59
:1017D0001B681344044A136000BFBD465DF8047BD8
:1017E000704700BF2C000020D804002080B400AF58
:1017F000034B1B681846BD465DF8047B704700BF6D
:10180000D804002080B584B000AF7860FFF7EEFF09
:10181000B8607B68FB60FB68B3F1FF3F05D00A4B03
:101820001B781A46FB681344FB6000BFFFF7DEFF1E
:101830000246BB68D31AFA689A42F7D800BF00BFC5
:101840001037BD4680BD00BF2C00002080B485B09D
:1018500000AF78607B6803F00703FB600C4BDB682C
:10186000BB60BA684FF6FF031340BB60FB681A0207
:10187000BB68134343F0BF6343F40033BB60044AC7
:10188000BB68D36000BF1437BD465DF8047B70476A
:1018900000ED00E080B400AF044BDB681B0A03F0EE
:1018A00007031846BD465DF8047B704700ED00E075
:1018B00080B483B000AF03463960FB7197F90730FD
:1018C000002B0ADB3B68DAB20C4997F907301201AA
:1018D000D2B20B4483F800230AE03B68DAB208492D
:1018E000FB7903F00F03043B1201D2B20B441A76CA
:1018F00000BF0C37BD465DF8047B704700E100E097
:1019000000ED00E080B489B000AFF860B9607A60A3
:10191000FB6803F00703FB61FB69C3F10703042BBA
:1019200028BF0423BB61FB690433062B02D9FB6982
:10193000033B00E000237B614FF0FF32BB6902FAFA
:1019400003F3DA43BB681A407B699A404FF0FF31DA
:101950007B6901FA03F3D9437B680B4013431846B4
:101960002437BD465DF8047B7047000080B582B027
:1019700000AF78607B68013BB3F1807F01D3012326
:101980000FE00A4A7B68013B53600F214FF0FF30A4
:10199000FFF78EFF054B00229A60044B07221A6066
:1019A000002318460837BD4680BD00BF10E000E0A8
:1019B00080B582B000AF78607868FFF747FF00BF5E
:1019C0000837BD4680BD80B586B000AF0346B9601C
:1019D0007A60FB7300237B61FFF75CFF78617A68B4
:1019E000B9687869FFF78EFF024697F90F30114604
:1019F0001846FFF75DFF00BF1837BD4680BD80B5B4
:101A000082B000AF78607868FFF7B0FF03461846F1
:101A10000837BD4680BD000080B489B000AF786053
:101A2000396000237B6100233B610023BB610023FD
:101A3000FB6159E10122FB6902FA03F37B613B6818
:101A40001B687A6913403B613A697B699A4240F0AE
:101A500048813B685B6803F00303012B05D03B68BA
:101A60005B6803F00303022B30D17B689B68BB618A
:101A7000FB695B00032202FA03F3DB43BA691340FC
:101A8000BB613B68DA68FB695B0002FA03F3BA6981
:101A90001343BB617B68BA699A607B685B68BB6112
:101AA0000122FB6902FA03F3DB43BA691340BB610D
:101AB0003B685B681B0903F00102FB6902FA03F350
:101AC000BA691343BB617B68BA695A603B685B685B
:101AD00003F00303032B17D07B68DB68BB61FB6952
:101AE0005B00032202FA03F3DB43BA691340BB61D4
:101AF0003B689A68FB695B0002FA03F3BA69134317
:101B0000BB617B68BA69DA603B685B6803F003031A
:101B1000022B23D1FB69DA087B68083253F82230A4
:101B2000BB61FB6903F007039B000F2202FA03F37A
:101B3000DB43BA691340BB613B681A69FB6903F078
:101B400007039B0002FA03F3BA691343BB61FB6905
:101B5000DA087B680832B96943F822107B681B6891
:101B6000BB61FB695B00032202FA03F3DB43BA6942
:101B70001340BB613B685B6803F00302FB695B00D9
:101B800002FA03F3BA691343BB617B68BA691A604E
:101B90003B685B6803F44033002B00F0A280002315
:101BA000FB60574B5B6C564A43F480435364544B81
:101BB0005B6C03F48043FB60FB68524AFB699B0843
:101BC000023352F82330BB61FB6903F003039B002F
:101BD0000F2202FA03F3DB43BA691340BB617B684F
:101BE000494A934219D07B68484A934213D07B6894
:101BF000474A93420DD07B68464A934207D07B68A0
:101C0000454A934201D1042308E0072306E0032359
:101C100004E0022302E0012300E00023FA6902F05D
:101C2000030292009340BA691343BB613549FB69D3
:101C30009B080233BA6941F82320384B9B68BB618B
:101C40003B69DB43BA691340BB613B685B6803F4E3
:101C50008013002B03D0BA693B691343BB612F4A41
:101C6000BB6993602D4BDB68BB613B69DB43BA69A1
:101C70001340BB613B685B6803F40013002B03D087
:101C8000BA693B691343BB61244ABB69D360234BE8
:101C90005B68BB613B69DB43BA691340BB613B686E
:101CA0005B6803F40033002B03D0BA693B6913432C
:101CB000BB611A4ABB695360184B1B68BB613B6927
:101CC000DB43BA691340BB613B685B6803F4803354
:101CD000002B03D0BA693B691343BB610F4ABB6950
:101CE0001360FB690133FB61FB690F2B7FF6A2AE2A
:101CF00000BF00BF2437BD465DF8047B704700BFBE
:101D00000038024000380140000002400004024058
:101D100000080240000C024000100240003C01405C
:101D200080B483B000AF78600B467B8013467B7035
:101D30007B78002B03D07A887B689A6103E07B88EC
:101D40001A047B689A6100BF0C37BD465DF8047BBE
:101D50007047000080B586B000AF78607B68002BCC
:101D600001D1012367E27B681B6803F00103002BAC
:101D700075D0884B9B6803F00C03042B0CD0854B6B
:101D80009B6803F00C03082B12D1824B5B6803F4B1
:101D90008003B3F5800F0BD17E4B1B6803F4003337
:101DA000002B5BD07B685B68002B57D1012342E29C
:101DB0007B685B68B3F5803F06D1764B1B68754A3C
:101DC00043F4803313601DE07B685B68B3F5A02F9C
:101DD0000CD1704B1B686F4A43F4802313606D4B2A
:101DE0001B686C4A43F4803313600BE0694B1B683B
:101DF000684A23F480331360664B1B68654A23F4FA
:101E0000802313607B685B68002B13D0FFF7EEFC28
:101E1000386108E0FFF7EAFC02463B69D31A642BFD
:101E200001D9032307E25B4B1B6803F40033002B4B
:101E3000F0D014E0FFF7DAFC386108E0FFF7D6FCD9
:101E400002463B69D31A642B01D90323F3E1514BBA
:101E50001B6803F40033002BF0D100E000BF7B6867
:101E60001B6803F00203002B63D04A4B9B6803F00E
:101E70000C03002B0BD0474B9B6803F00C03082B83
:101E80001CD1444B5B6803F48003002B16D1414BFB
:101E90001B6803F00203002B05D07B68DB68012B75
:101EA00001D00123C7E13B4B1B6823F0F8027B689C
:101EB0001B69DB00374913430B603AE07B68DB6842
:101EC000002B20D0344B01221A60FFF78FFC3861C1
:101ED00008E0FFF78BFC02463B69D31A022B01D9BD
:101EE0000323A8E12B4B1B6803F00203002BF0D067
:101EF000284B1B6823F0F8027B681B69DB0025492F
:101F000013430B6015E0244B00221A60FFF76EFCB0
:101F1000386108E0FFF76AFC02463B69D31A022BDE
:101F200001D9032387E11B4B1B6803F00203002B3D
:101F3000F0D17B681B6803F00803002B36D07B6868
:101F40005B69002B16D0154B01221A60FFF74EFC7F
:101F5000386108E0FFF74AFC02463B69D31A022BBE
:101F600001D9032367E10B4B5B6F03F00203002BE6
:101F7000F0D01BE0094B00221A60FFF737FC3861F4
:101F80000EE0FFF733FC02463B69D31A022B07D958
:101F9000032350E10038024000004742800E4742D0
:101FA000884B5B6F03F00203002BEAD17B681B6850
:101FB00003F00403002B00F097800023FB75814B96
:101FC0001B6C03F08053002B0FD10023BB607D4BB3
:101FD0001B6C7C4A43F0805313647A4B1B6C03F0F8
:101FE0008053BB60BB680123FB75774B1B6803F410
:101FF0008073002B18D1744B1B68734A43F48073B1
:102000001360FFF7F3FB386108E0FFF7EFFB0246D0
:102010003B69D31A022B01D903230CE16A4B1B68DD
:1020200003F48073002BF0D07B689B68012B06D1F2
:10203000644B1B6F634A43F0010313671CE07B682A
:102040009B68052B0CD15F4B1B6F5E4A43F004036A
:1020500013675C4B1B6F5B4A43F0010313670BE094
:10206000584B1B6F574A23F001031367554B1B6FE7
:10207000544A23F0040313677B689B68002B15D038
:10208000FFF7B4FB38610AE0FFF7B0FB02463B699B
:10209000D31A41F28832934201D90323CBE0494B52
:1020A0001B6F03F00203002BEED014E0FFF79EFB42
:1020B00038610AE0FFF79AFB02463B69D31A41F206
:1020C0008832934201D90323B5E03E4B1B6F03F0E6
:1020D0000203002BEED1FB7D012B05D1394B1B6C8C
:1020E000384A23F0805313647B689B69002B00F00F
:1020F000A180344B9B6803F00C03082B5CD07B68F9
:102100009B69022B41D1314B00221A60FFF76EFB15
:10211000386108E0FFF76AFB02463B69D31A022BDD
:1021200001D9032387E0274B1B6803F00073002BC2
:10213000F0D17B68DA697B681B6A1A437B685B6A4B
:102140009B011A437B689B6A5B08013B1B041A4393
:102150007B68DB6A1B061B4913434B601B4B012248
:102160001A60FFF743FB386108E0FFF73FFB0246C8
:102170003B69D31A022B01D903235CE0114B1B6886
:1021800003F00073002BF0D054E0104B00221A60D3
:10219000FFF72CFB386108E0FFF728FB02463B699C
:1021A000D31A022B01D9032345E0064B1B6803F029
:1021B0000073002BF0D13DE07B689B69012B07D1B8
:1021C000012338E0003802400070004060004742C0
:1021D0001B4B5B68FB607B689B69012B28D0FB680D
:1021E00003F480027B68DB699A4221D1FB6803F02B
:1021F0003F027B681B6A9A421AD1FA6847F6C0739D
:1022000013407A68526A9201934211D1FB6803F439
:1022100040327B689B6A5B08013B1B049A4207D1F2
:10222000FB6803F070627B68DB6A1B069A4201D090
:10223000012300E0002318461837BD4680BD00BFCB
:102240000038024080B584B000AF786039607B68A8
:10225000002B01D10123CCE0684B1B6803F007037E
:102260003A689A420CD9654B3A68D2B21A70634BFD
:102270001B6803F007033A689A4201D00123B8E0D3
:102280007B681B6803F00203002B20D07B681B686F
:1022900003F00403002B05D0594B9B68584A43F4C4
:1022A000E05393607B681B6803F00803002B05D0A4
:1022B000534B9B68524A43F460439360504B9B6876
:1022C00023F0F0027B689B684D4913438B607B6869
:1022D0001B6803F00103002B44D07B685B68012B73
:1022E00007D1474B1B6803F40033002B19D101239E
:1022F0007FE07B685B68022B03D07B685B68032B05
:1023000007D13F4B1B6803F00073002B09D1012359
:102310006FE03B4B1B6803F00203002B01D101234C
:1023200067E0374B9B6823F003027B685B683449A6
:1023300013438B60FFF75AFAF8600AE0FFF756FA8A
:102340000246FB68D31A41F28832934201D9032333
:102350004FE02B4B9B6803F00C027B685B689B0093
:102360009A42EBD1254B1B6803F007033A689A4267
:102370000CD2224B3A68D2B21A70204B1B6803F081
:1023800007033A689A4201D0012332E07B681B6858
:1023900003F00403002B08D0194B9B6823F4E05290
:1023A0007B68DB68164913438B607B681B6803F00E
:1023B0000803002B09D0124B9B6823F460427B6812
:1023C0001B69DB000E4913438B6000F021F80246C5
:1023D0000B4B9B681B0903F00F030A49CB5C22FAE5
:1023E00003F3094A1360094B1B681846FFF7BAF953
:1023F000002318461037BD4680BD00BF003C024098
:10240000003802403C3B0008240000202800002047
:102410002DE9B04F90B000AF00237B630023FB6336
:1024200000233B630023BB63594B9B6803F00C0301
:10243000082B0DD0082B00F2A180002B02D0042B1A
:1024400003D09BE0534BBB639BE0534BBB6398E0D3
:102450004F4B5B6803F03F037B634D4B5B6803F4BA
:102460008003002B28D04A4B5B689B0900223B620B
:102470007A623B6AC3F308000021474B03FB01F279
:10248000002300FB03F31344434AA0FB0212FA6249
:102490000A46BA62FA6A1344FB627B6B0022BB6194
:1024A000FA61D7E90623D7E90A01FDF7F1FE0246F2
:1024B0000B461346FB6353E0354B5B689B090022D8
:1024C0003B617A613B69C3F3080A4FF0000B524647
:1024D0005B464FF000004FF00001590141EAD26124
:1024E000500102460B46B2EB0A0863EB0B094FF0B2
:1024F00000024FF000034FEA891343EA98634FEA62
:102500008812B2EB080463EB09054FF000024FF0AC
:102510000003EB0043EA5473E20014461D4614EB3B
:102520000A033B6045EB0B037B604FF000024FF06A
:102530000003D7E9004529468B02214643EA91531F
:1025400021468A02104619467B6B0022BB60FA6066
:10255000D7E90223FDF79CFE02460B461346FB63B8
:102560000B4B5B681B0C03F0030301335B003B6305
:10257000FA6B3B6BB2FBF3F3BB6302E0054BBB634F
:1025800000BFBB6B18464037BD46BDE8B08F00BFEB
:10259000003802400024F40040787D0180B586B008
:1025A00000AF786000237B6100233B617B681B6880
:1025B00003F00103002B05D17B681B6803F00403C3
:1025C000002B35D0674B00221A60FFF70FF97861B6
:1025D00008E0FFF70BF902467B69D31A022B01D9F9
:1025E0000323BAE0604B1B6803F00063002BF0D1BB
:1025F0007B685B689A017B689B681B075A49134399
:10260000C1F88430574B01221A60FFF7EFF8786168
:1026100008E0FFF7EBF802467B69D31A022B01D9D9
:1026200003239AE0504B1B6803F00063002BF0D0AB
:102630007B681B6803F00203002B00F083800023FB
:10264000FB60494B1B6C484A43F080531364464B74
:102650001B6C03F08053FB60FB68444B1B68434AD0
:1026600043F480731360FFF7C1F8786108E0FFF767
:10267000BDF802467B69D31A022B01D903236CE013
:102680003A4B1B6803F48073002BF0D0364B1B6F62
:1026900003F440733B613B69002B2FD07B68DB6800
:1026A00003F440733A699A4228D02F4B1B6F23F4EE
:1026B00040733B612E4B01221A602D4B00221A60A1
:1026C000294A3B691367284B1B6F03F00103012B59
:1026D00014D1FFF78BF878610AE0FFF787F802461C
:1026E0007B69D31A41F28832934201D9032334E043
:1026F0001D4B1B6F03F00203002BEED07B68DB68E1
:1027000003F44073B3F5407F0DD1174B9B6823F45E
:10271000F8127B68DB6823F0704323F4407312499E
:1027200013438B6005E0104B9B680F4A23F4F813AA
:1027300093600D4B1A6F7B68DB68C3F30B030A4988
:1027400013430B677B681B6803F00803002B03D05F
:102750007B681A7C074B1A60002318461837BD4661
:1027600080BD00BF68004742003802400070004052
:10277000400E4742E011474280B584B000AF786018
:102780007B68002B01D1012373E07B685B7FDBB2A8
:10279000002B05D17B6800221A777868FEF7F2FEDD
:1027A0007B6802225A777B681B68DB6803F01003A2
:1027B000102B55D07B681B68CA225A627B681B6845
:1027C00053225A62786800F049FA0346FB73FB7B98
:1027D000002B2CD17B681B689B687A68126823F4F5
:1027E000E00323F0400393607B681B6899687B6873
:1027F0005A687B681B691A437B685B691A437B686C
:102800001B680A439A607B681B687A68D2681A6101
:102810007B681B6819697B689B681A047B681B6866
:102820000A431A61786800F050FA0346FB73FB7B99
:10283000002B10D17B681B681A6C7B681B6822F424
:1028400080221A647B681B68196C7B689A697B68B4
:102850001B680A431A647B681B68FF225A6201E006
:102860000023FB73FB7B002B02D17B6801225A778C
:10287000FB7B18461037BD4680BD90B587B000AFD2
:10288000F860B9607A6000237B61FB681B7F012BD5
:1028900001D1022387E0FB6801221A77FB6802223C
:1028A0005A777B68002B26D1FB681B689B6803F076
:1028B0004003002B02D1BB680022DA70BB681B7892
:1028C000184600F027FA03461C04BB685B781846DC
:1028D00000F020FA03461B021C43BB689B78184695
:1028E00000F018FA034644EA0302BB68DB789B0554
:1028F00013437B6118E0FB681B689B6803F040038F
:10290000002B02D1BB680022DA70BB681B781A0466
:10291000BB685B781B021343BA6892781A43BB68A2
:10292000DB789B0513437B61FB681B68CA225A62F4
:10293000FB681B6853225A62F86800F08FF903465F
:10294000FB74FB7C002B20D1FB681A687B6903F0C9
:102950007F3323F0FE431360FB681B689A68FB68B3
:102960001B6822F480229A60FB681B689968BB6828
:10297000DA68BB681B691A43FB681B680A439A60E4
:10298000F86800F0A2F90346FB74FB7C002B02D12F
:10299000FB6801225A77FB681B68FF225A62FB68BA
:1029A00000221A77FB7C18461C37BD4690BD80B5C7
:1029B00086B000AFF860B9607A6000237B61FB6885
:1029C0001B689A6ABB685A60FB681B681B69C3F383
:1029D0000E02BB689A60FB681B681B6803F07F33BC
:1029E00023F0FE437B617B691B0CDBB203F03F03EA
:1029F000DAB2BB681A707B691B0ADBB203F07F0393
:102A0000DAB2BB685A707B69DBB203F07F03DAB2DB
:102A1000BB689A707B699B0DDBB203F00103DAB2ED
:102A2000BB68DA707B68002B1AD1BB681B7818462C
:102A300000F08EF903461A46BB681A70BB685B78D3
:102A4000184600F085F903461A46BB685A70BB6801
:102A50009B78184600F07CF903461A46BB689A70CA
:102A6000002318461837BD4680BD90B587B000AF2B
:102A7000F860B9607A6000237B61FB681B7F012BE3
:102A800001D1022371E0FB6801221A77FB68022260
:102A90005A777B68002B0ED1BB685B7803F010037C
:102AA000002B08D0BB685B7823F01003DBB20A333D
:102AB000DAB2BB685A707B68002B1CD1BB68DB782C
:102AC000184600F027F903461C04BB685B781846DB
:102AD00000F020F903461B021C43BB689B78184694
:102AE00000F018F9034644EA0302BB681B785B0355
:102AF00013437B610EE0BB68DB781A04BB685B782C
:102B00001B021343BA6892781A43BB681B785B03B5
:102B100013437B61FB681B68CA225A62FB681B680F
:102B200053225A62F86800F099F80346FB74FB7C64
:102B3000002B0CD1FB681A687B6923F07F4323F0DC
:102B4000C0035360F86800F0C0F80346FB74FB7CD8
:102B5000002B02D1FB6801225A77FB681B68FF2219
:102B60005A62FB6800221A77FB7C18461C37BD4668
:102B700090BD80B586B000AFF860B9607A60002380
:102B80007B61FB681B685B6823F07F4323F0C00315
:102B90007B617B691B0CDAB2BB68DA707B691B0A4C
:102BA000DBB203F01F03DAB2BB685A707B69DBB299
:102BB00003F03F03DAB2BB689A707B695B0BDBB250
:102BC00003F00703DAB2BB681A707B68002B1AD1D6
:102BD000BB68DB78184600F0BBF803461A46BB68B2
:102BE000DA70BB685B78184600F0B2F803461A4604
:102BF000BB685A70BB689B78184600F0A9F803467A
:102C00001A46BB689A70002318461837BD4680BD27
:102C100080B584B000AF78600023FB607B681B68E0
:102C20000D4ADA60FEF7E2FDF86009E0FEF7DEFD2E
:102C30000246FB68D31AB3F57A7F01D9032307E074
:102C40007B681B68DB6803F02003002BEED00023B9
:102C500018461037BD4680BD5F3F010080B584B087
:102C600000AF78600023BB600023FB737B681B68A8
:102C7000DB6803F04003002B22D17B681B68DA6815
:102C80007B681B6842F08002DA60FEF7AFFDB86037
:102C90000CE0FEF7ABFD0246BB68D31AB3F57A7FB2
:102CA00004D97B6804225A770123FB737B681B6875
:102CB000DB6803F04003002B02D1FB7B012BE8D142
:102CC000FB7B18461037BD4680BD80B584B000AF91
:102CD00078600023FB737B681B68DA687B681B687D
:102CE00022F08002DA607B681B689B6803F0200397
:102CF000002B0AD17868FFF78BFF0346002B04D026
:102D00007B6804225A770123FB73FB7B184610373C
:102D1000BD4680BD80B485B000AF0346FB71002383
:102D2000FB6005E0FB680133FB60FB790A3BFB714C
:102D3000FB79092BF6D8FB68DBB21B01DAB2FB7911
:102D40001343DBB218461437BD465DF8047B704769
:102D500080B485B000AF0346FB710023FB60FB79B4
:102D60001B09DBB21A4613469B0013445B00FB6051
:102D7000FB68DAB2FB7903F00F03DBB21344DBB27A
:102D800018461437BD465DF8047B704780B586B0A1
:102D900000AFF860B9607A6000237B61FB681B7F3D
:102DA000012B01D102238AE0FB6801221A77FB681C
:102DB00002225A77FB681B68CA225A62FB681B68AA
:102DC00053225A62FB681B689B6803F48063002BE4
:102DD0001ED0FEF70BFD786113E0FEF707FD0246FB
:102DE0007B69D31AB3F57A7F0BD9FB681B68FF2286
:102DF0005A62FB6803225A77FB6800221A77032382
:102E00005DE0FB681B68DB6803F00403002BE4D182
:102E1000FB681B689A68FB681B6822F480629A60F2
:102E2000FB681B68DB68DAB2FB681B6862F49062BF
:102E3000DA60FEF7DBFC786113E0FEF7D7FC0246B0
:102E40007B69D31AB3F57A7F0BD9FB681B68FF2225
:102E50005A62FB6803225A77FB6800221A77032321
:102E60002DE0FB681B68DB6803F00403002BE4D053
:102E7000FB681B689A68FB681B6822F007029A606F
:102E8000FB681B689968FB681B687A680A439A604C
:102E9000FB681B68BA685A61FB681B689A68FB6824
:102EA0001B6842F480629A60FB681B68FF225A62CA
:102EB000FB6801225A77FB6800221A770023184624
:102EC0001837BD4680BD80B483B000AF78603960EC
:102ED0007B681B7F012B01D1022330E07B6801223C
:102EE0001A777B6802225A777B681B68CA225A626B
:102EF0007B681B6853225A627B681B689A687B68F0
:102F00001B6822F400229A607B681B6899687B68C2
:102F10001B683A680A439A607B681B689A687B68FA
:102F20001B6842F400029A607B681B68FF225A62A9
:102F30007B6801225A777B6800221A7700231846A3
:102F40000C37BD465DF8047B704700000CB430B50B
:102F5000174B0C1E1D689DB008DA8B232B604FF0B9
:102F6000FF301DB0BDE8304002B070474FF402732F
:102F7000ADF8143014BF04F1FF33234604930793D4
:102F80004FF6FF7302900690ADF81630209A21ABF1
:102F900002A92846019300F095F9431CBCBF8B237E
:102FA0002B60002CDDD0029B00221A70D9E700BFF5
:102FB0003000002002440346934200D1704703F8DA
:102FC000011BF9E7014B1868704700BF3000002073
:102FD00070B50D4D0D4C641BA4100026A64209D1FE
:102FE0000B4D0C4C00F066FC641BA4100026A6429E
:102FF00005D170BD55F8043B98470136EEE755F80A
:10300000043B98470136F2E7883B0008883B0008FC
:10301000883B00088C3B00087047704738B5054670
:10302000002941D051F8043C0C1F002BB8BFE41814
:1030300000F0E0F81D4A136833B963601460284655
:10304000BDE8384000F0DCB8A34208D92068211858
:103050008B4201BF19685B6809182160EDE71A46C9
:103060005B680BB1A342FAD911685018A0420BD18A
:1030700020680144501883421160E0D118685B68F1
:10308000536008441060DAE702D90C232B60D6E7BE
:10309000206821188B4204BF19685B68636004BF15
:1030A000091821605460CAE738BD00BF200600201F
:1030B00070B50F4E0C463168054611B900F0A6FBFD
:1030C00030602146284600F0A1FB431C03D14FF09D
:1030D000FF34204670BDC41C24F00304A042F8D085
:1030E000211A284600F092FB0130F2D1EFE700BF31
:1030F0001C0600202DE9F843CD1C25F003050835FA
:103100000C2D38BF0C25002D064601DBA94204D941
:103110000C2333600020BDE8F883DFF8D48000F092
:1031200069F8D8F800301C4644BB29463046FFF702
:10313000BFFF431C044658D1D8F800402746002F53
:1031400043D1002C4BD023683946304604EB0309A9
:1031500000F05CFB814542D121686D1A294630465A
:10316000FFF7A6FF01303AD023682B442360D8F83C
:1031700000305A6862BBC8F800700FE02268521B2A
:1031800020D40B2A17D96119A342256018BF5960B2
:10319000636808BFC8F8001062514B60304600F009
:1031A0002FF804F10B00231D20F00700C21A1CBFEA
:1031B0001B1AA350AFE76268A3420CBFC8F80020F7
:1031C0005A60EBE723466468AEE73C467F68B6E7A3
:1031D0001A465B68A342FBD100235360DEE70C2351
:1031E0003360304600F00CF894E70560D6E700BF86
:1031F000200600200148FFF70FBF00BF180600207F
:103200000148FFF70ABF00BF180600202DE9F0476C
:103210008E681F46BE420B6882460C4690462DD8EB
:10322000B1F90C2012F4906F26D06569096905EB9D
:103230004505A3EB010905EBD5757B1C4B446D10CF
:103240009D4238BF1D46530527D52946FFF752FF3B
:10325000064660B321694A4600F0E8FAA38923F4E0
:10326000906343F08003A381266165614E44A5EB22
:1032700009052660A5603E46BE4200D93E4620684C
:103280003246414600F0A8FAA3689B1BA36023685E
:10329000334423600020BDE8F0872A4600F0D4FACA
:1032A00006460028E0D121695046FFF7B7FE0C23FF
:1032B000CAF80030A38943F04003A3814FF0FF30E8
:1032C000E9E700002DE9F04F98468B891B069DB079
:1032D00007460D46144610D50B6973B94021FFF718
:1032E00009FF2860286130B90C233B604FF0FF30A4
:1032F0001DB0BDE8F08F40236B61002309932023AC
:103300008DF82930CDF80C803023DFF89C818DF8C2
:103310002A304FF0010923469A4613F8012B0AB1CF
:10332000252AF9D1BAEB040B0BD05B46224629467D
:103330003846FFF76BFF013000F0A780099A5A4426
:1033400009929AF80030002B00F09F8000234FF084
:10335000FF32CDE905230AF1010A049307938DF8A2
:1033600053301A935446052214F8011B4E48FCF7BB
:103370003FFF049AD8B9D00644BF20238DF85330BC
:10338000110744BF2B238DF853309AF800302A2BB5
:1033900015D0079A544600204FF00A0C214611F828
:1033A000013B303B092B4BD9B0B1079214E0A0EBA5
:1033B000080309FA03F313430493A246D2E7039BDD
:1033C000191D1B680391002BBBBF5B4242F0020238
:1033D00007930793B8BF049223782E2B0AD1637802
:1033E0002A2B32D1039B1A1D1B68039243EAE37315
:1033F00002340593DFF8C0A0217803225046FCF781
:10340000F7FE38B1049BA0EB0A0040228240134330
:103410000134049314F8011B24488DF82810062267
:10342000FCF7E6FE002836D0214B1BBB039B07337D
:1034300023F0070308330393099B334409936AE796
:103440000CFB02320C460120A8E70023013405934F
:1034500019464FF00A0C204610F8012B303A092A81
:1034600003D9002BC6D00591C4E70CFB012104460B
:103470000123F0E703AB00932A460E4B04A938461C
:10348000AFF30080421C0646D6D1AB895B063FF500
:103490002DAF09982CE703AB00932A46054B04A9EE
:1034A000384600F079F8EDE74C3B0008563B000841
:1034B000000000000D320008523B00082DE9F047E3
:1034C000164698468A680B69DDF820909342B8BF8B
:1034D0001346336091F8432007460C460AB1013386
:1034E00033602368990642BF33680233336025682E
:1034F00015F0060506D104F1190AE36832689B1A33
:10350000AB4226DC94F843302268003B18BF01230D
:1035100092062BD404F1430241463846C847013095
:103520001ED02368226903F00603042B02BFE5685E
:103530003368ED1AA3680CBF25EAE57500259342B0
:10354000C4BF9B1AED1800261A34B5421AD10020C8
:1035500008E00123524641463846C847013003D1AE
:103560004FF0FF30BDE8F0870135C6E7E1185A1C7F
:10357000302081F84300224494F8451082F843102B
:103580000233C7E70123224641463846C847013087
:10359000E6D00136D9E700002DE9FF470F7E0C9EEB
:1035A000782F914680460C469A4601F1430207D88F
:1035B000622F0AD8002F00F0D280582F00F0B98077
:1035C00004F1420684F842703AE0A7F16303152B38
:1035D000F6D801A151F823F031360008453600082D
:1035E000C1350008C1350008C1350008C1350008E3
:1035F00045360008C1350008C1350008C13500084E
:10360000C1350008453700086F360008FF3600084E
:10361000C1350008C135000867370008C13500080A
:103620006F360008C1350008C135000807370008AB
:1036300033681A1D1B68326004F1420684F8423078
:1036400001239DE033682068191D3160060601D50D
:103650001D6803E04506FBD5B3F90050002D03DAE1
:103660002D236D4284F8433059480A2311E0216824
:103670003368080653F8045B02D4490648BFADB26C
:103680006F2F5348336014BF0A230823002184F8A6
:1036900043106668A660002EA2BF216821F00401D5
:1036A00021600DB9002E4BD01646B5FBF3F103FB9C
:1036B0001157C75D06F8017D2F46BB420D46F4D970
:1036C000082B0BD12368DF0708D52369616899426D
:1036D000DEBF302306F8013C06F1FF36921B226163
:1036E000CDF800A04B4603AA21464046FFF7E6FE70
:1036F00001304AD14FF0FF3004B0BDE8F0872368B5
:1037000043F0200323603348782784F8457023680A
:1037100031681F0651F8045B02D45F0648BFADB2A2
:103720003160D90744BF43F0200323601DB110234B
:10373000ACE72748E9E7236823F020032360F6E796
:103740001646BDE7336825686169181D30602E068E
:103750001B6801D5196002E06806FBD519800023BB
:1037600023611646BCE733681A1D32601E68626822
:1037700000213046FCF73CFD08B1801B60606368A7
:103780002361002384F84330AAE72369324649467F
:103790004046D0470130ADD023689B0713D4E06882
:1037A000039B9842B8BF1846A6E701233246494614
:1037B0004046D04701309DD00135E36803995B1A3C
:1037C000AB42F2DCEBE7002504F11906F5E700BF98
:1037D0005D3B00086E3B0008884210B501EB020417
:1037E00002D98442234607D8431EA14208D011F8CB
:1037F000012B03F8012FF8E7024401468A4200D169
:1038000010BD13F8014D02F8014DF7E738B5064D2C
:103810000023044608462B60FDF710FF431C02D12D
:103820002B6803B1236038BD140600200A4491427E
:1038300000F1FF3300D1704710B511F8014B03F8C8
:10384000014F9142F9D110BD2DE9F0418046154656
:103850000C4621B9BDE8F0411146FFF74BBC2AB92F
:10386000FFF7DCFB00242046BDE8F08100F01AF8E9
:103870008542064602D8B5EB500FF4D8294640469B
:10388000FFF738FC07460028ECD0B5422A4621460F
:1038900028BF3246FFF7CAFF21464046FFF7BEFB6E
:1038A0003C46E0E751F8043C181F002BBCBF0B5806
:1038B000C0187047F8B500BFF8BC08BC9E467047FA
:0C38C000F8B500BFF8BC08BC9E4670477D
:1038CC00000000004D6F6E00547565005765640074
:1038DC0054687500467269005361740053756E002C
:1038EC00D09FD09D00000000D092D0A2000000001C
:1038FC00D0A1D0A000000000D0A7D0A200000000F2
:10390C00D09FD0A200000000D0A1D09100000000F8
:10391C00D092D0A100000000253032753A2530320B
:10392C00753A2530327500002D2D2D00253032755D
:10393C002E253032752E253034752C202573000041
:10394C002D2D0000000000000000005F00000007AB
:10395C00000700147F147F14242A7F2A12231308D3
:10396C00646236495522500005030000001C2241B8
:10397C00000041221C0014083E081408083E0808E8
:10398C0000503000000808080808006060000020A3
:10399C00100804023E5149453E00427F40004261FE
:1039AC005149462141454B311814127F102745458A
:1039BC0045393C4A494930017109050336494949A1
:1039CC0036064949291E00363600000056360000DE
:1039DC000814224100141414141400412214080277
:1039EC0001510906324979413E7E1111117E7F4900
:1039FC004949363E414141227F4141221C7F494980
:103A0C0049417F090909013E4149497A7F08080863
:103A1C007F00417F41002040413F017F081422413B
:103A2C007F404040407F020C027F7F0408107F3EA5
:103A3C004141413E7F090909063E4151215E7F0902
:103A4C00192946464949493101017F01013F40404E
:103A5C00403F1F2040201F7F2018207F6314081434
:103A6C006303047804036151494543007F414100DD
:103A7C0002040810200041417F000402010204806E
:103A8C0080808080000305000020545454787F48C7
:103A9C004444383844444420384444487F385454CF
:103AAC005418087E0901020C5252523E7F0804043D
:103ABC007800447D40002040443D007F10284400A5
:103ACC0000417F40007C041804787C08040478389A
:103ADC00444444387C14141408081414147C7C08D2
:103AEC000404084854545420043F4440203C4040B3
:103AFC00207C1C2040201C3C4030403C442810289A
:103B0C00440C5050503C4464544C44000836410022
:103B1C0000007F0000004136080010080810080063
:103B2C007F0101017F0000000709097F00000000F0
:103B3C000000000000000000010203040607080951
:103B4C00232D302B2000686C4C006566674546477A
:103B5C0000303132333435363738394142434445FD
:103B6C00460030313233343536373839616263646C
:043B7C00656600007A
:083B800060C6FF7F0100000098
:043B8800C50100086B
:043B8C00A10100088B
:103B9000CC380008EC380008F4380008FC3800087D
:103BA000043900080C390008143900081C390008D1
:103BB000FF0000000024F4001000000001000000DD
:103BC0003400002000000000DC0400204405002038
:103BD000AC05002000000000000000000000000014
:103BE00000000000000000000000000000000000D5
:103BF00000000000000000000000000000000000C5
:103C000000000000000000000000000000000000B4
:04000005080016CD0C
:00000001FF
